{
  "transactions": [
    {
      "hash": "0x8cfcf6c3da5c56d6e81d7228ed9e247d0634581771e9173644bb51e42b3ac05d",
      "transactionType": "CALL",
      "contractName": null,
      "contractAddress": "0xd821a7d919e007b6b39925f672f1219db4865fba",
      "function": "createVault(address)",
      "arguments": [
        "0x0000000000000000000000000000000000000000"
      ],
      "transaction": {
        "from": "0x492c0b9f298cc49fe2644a2ebc6ea8df848c72fb",
        "to": "0xd821a7d919e007b6b39925f672f1219db4865fba",
        "gas": "0x3670b",
        "value": "0x0",
        "input": "0xb4bd6f460000000000000000000000000000000000000000000000000000000000000000",
        "nonce": "0xd",
        "chainId": "0x279f"
      },
      "additionalContracts": [],
      "isFixedGasLimit": false
    },
    {
      "hash": "0x8d780bed6d8a291488267608765caac97f9923c99ccc028e43063cda17e36ee5",
      "transactionType": "CALL",
      "contractName": null,
      "contractAddress": "0xd821a7d919e007b6b39925f672f1219db4865fba",
      "function": "depositCollateral(uint256)",
      "arguments": [
        "1000000000000000000"
      ],
      "transaction": {
        "from": "0x492c0b9f298cc49fe2644a2ebc6ea8df848c72fb",
        "to": "0xd821a7d919e007b6b39925f672f1219db4865fba",
        "gas": "0x11b47",
        "value": "0xde0b6b3a7640000",
        "input": "0xbad4a01f0000000000000000000000000000000000000000000000000de0b6b3a7640000",
        "nonce": "0xe",
        "chainId": "0x279f"
      },
      "additionalContracts": [],
      "isFixedGasLimit": false
    },
    {
      "hash": "0xfaa3db9559e4e6dbf334b7d2e871e19827133badb597005a6faf5cb29b6a166a",
      "transactionType": "CALL",
      "contractName": null,
      "contractAddress": "0xd821a7d919e007b6b39925f672f1219db4865fba",
      "function": "initiateMint(address,uint256,bytes32,uint256)",
      "arguments": [
        "0x492c0b9F298cC49FE2644a2EBc6eA8dF848c72FB",
        "10000000000",
        "0x92bb148f65d5db51da3bab7330587392fd9ffbdf5066cec29807903c49cdc403",
        "1772643914"
      ],
      "transaction": {
        "from": "0x492c0b9f298cc49fe2644a2ebc6ea8df848c72fb",
        "to": "0xd821a7d919e007b6b39925f672f1219db4865fba",
        "gas": "0x54559",
        "value": "0x0",
        "input": "0x0b3dc18a000000000000000000000000492c0b9f298cc49fe2644a2ebc6ea8df848c72fb00000000000000000000000000000000000000000000000000000002540be40092bb148f65d5db51da3bab7330587392fd9ffbdf5066cec29807903c49cdc4030000000000000000000000000000000000000000000000000000000069a8664a",
        "nonce": "0xf",
        "chainId": "0x279f"
      },
      "additionalContracts": [],
      "isFixedGasLimit": false
    }
  ],
  "receipts": [
    {
      "status": "0x1",
      "cumulativeGasUsed": "0x6d787",
      "logs": [
        {
          "address": "0xd821a7d919e007b6b39925f672f1219db4865fba",
          "topics": [
            "0x5d9c31ffa0fecffd7cf379989a3c7af252f0335e0d2a1320b55245912c781f53",
            "0x000000000000000000000000492c0b9f298cc49fe2644a2ebc6ea8df848c72fb",
            "0x0000000000000000000000000000000000000000000000000000000000000000"
          ],
          "data": "0x",
          "blockHash": "0xe2f6cc45fd5e30d1d95dc757c3c4f6ef4a0e20b9ff55d46f156f708c990f5823",
          "blockNumber": "0xfad018",
          "blockTimestamp": "0x69a714cf",
          "transactionHash": "0x8cfcf6c3da5c56d6e81d7228ed9e247d0634581771e9173644bb51e42b3ac05d",
          "transactionIndex": "0x2",
          "logIndex": "0x5",
          "removed": false
        }
      ],
      "logsBloom": "0x00000000000000000000000000000000000000000000000000000000000000000000000000000000000000000000002000000000000000000000000000000000000000000000000000000000000000000000000000000000000200000000000000000000020000000000000000000800000000000000000000000000000000000000000000000400000400000000000000800000000000000000000000000000000000000000000000000000000000000000000000000000000800000000000000000000000000000000000000000000000000800080000000000000000020000000000000000000040000000000000000000000000000000000000000000000",
      "type": "0x2",
      "transactionHash": "0x8cfcf6c3da5c56d6e81d7228ed9e247d0634581771e9173644bb51e42b3ac05d",
      "transactionIndex": "0x2",
      "blockHash": "0xe2f6cc45fd5e30d1d95dc757c3c4f6ef4a0e20b9ff55d46f156f708c990f5823",
      "blockNumber": "0xfad018",
      "gasUsed": "0x3670b",
      "effectiveGasPrice": "0x17fb474601",
      "from": "0x492c0b9f298cc49fe2644a2ebc6ea8df848c72fb",
      "to": "0xd821a7d919e007b6b39925f672f1219db4865fba",
      "contractAddress": null
    },
    {
      "status": "0x1",
      "cumulativeGasUsed": "0x51145",
      "logs": [
        {
          "address": "0xd821a7d919e007b6b39925f672f1219db4865fba",
          "topics": [
            "0xf1c0dd7e9b98bbff859029005ef89b127af049cd18df1a8d79f0b7e019911e56",
            "0x000000000000000000000000492c0b9f298cc49fe2644a2ebc6ea8df848c72fb",
            "0x0000000000000000000000000000000000000000000000000000000000000000"
          ],
          "data": "0x0000000000000000000000000000000000000000000000000de0b6b3a7640000",
          "blockHash": "0xfc7e2a46a274e71cee0f5073a587c96b921a04309c962512a4eafebd1b93c7a0",
          "blockNumber": "0xfad01d",
          "blockTimestamp": "0x69a714d1",
          "transactionHash": "0x8d780bed6d8a291488267608765caac97f9923c99ccc028e43063cda17e36ee5",
          "transactionIndex": "0x2",
          "logIndex": "0x5",
          "removed": false
        }
      ],
      "logsBloom": "0x00000000000000000000000000000000000000000000000000000000000000000000000000000000000000000000002000000000000000000000000000000000000000000000000000000000000000000000000000000000000200000000000000000000020000000800000000000800000000000000000000000000000000000000000000000000000000000000000000800000000000000000000000000000000000000000000000000000000000000000000000000000000800000000000000000000000000000000000000000000010000800080000080000000000020000000000000000000000000000000000000000000000000000000000000000000",
      "type": "0x2",
      "transactionHash": "0x8d780bed6d8a291488267608765caac97f9923c99ccc028e43063cda17e36ee5",
      "transactionIndex": "0x2",
      "blockHash": "0xfc7e2a46a274e71cee0f5073a587c96b921a04309c962512a4eafebd1b93c7a0",
      "blockNumber": "0xfad01d",
      "gasUsed": "0x1a066",
      "effectiveGasPrice": "0x17fb474601",
      "from": "0x492c0b9f298cc49fe2644a2ebc6ea8df848c72fb",
      "to": "0xd821a7d919e007b6b39925f672f1219db4865fba",
      "contractAddress": null
    },
    {
      "status": "0x1",
      "cumulativeGasUsed": "0x7346f",
      "logs": [
        {
          "address": "0xd821a7d919e007b6b39925f672f1219db4865fba",
          "topics": [
            "0xe71892e21b97763fd8bd37e80d325b56877f38eb0a047915cee304671b50ffa1",
            "0xcac662cc73229da41ca5ace12dc122adbcaec3c55b8bff4ffe4ff8cf3ceecabe",
            "0x000000000000000000000000492c0b9f298cc49fe2644a2ebc6ea8df848c72fb",
            "0x000000000000000000000000492c0b9f298cc49fe2644a2ebc6ea8df848c72fb"
          ],
          "data": "0x00000000000000000000000000000000000000000000000000000002540be40000000000000000000000000000000000000000000000000000000000000f424092bb148f65d5db51da3bab7330587392fd9ffbdf5066cec29807903c49cdc40300000000000000000000000000000000000000000000000000000000d34f7b1d",
          "blockHash": "0xdb77439428283ff5266ae7ae71f21524e862bd3a52ab4e6b74946ba992499d1b",
          "blockNumber": "0xfad022",
          "blockTimestamp": "0x69a714d3",
          "transactionHash": "0xfaa3db9559e4e6dbf334b7d2e871e19827133badb597005a6faf5cb29b6a166a",
          "transactionIndex": "0x1",
          "logIndex": "0x1",
          "removed": false
        }
      ],
      "logsBloom": "0x00000000000000000000000000000000000000000000000000000000000000000000000000000000000000000000002000000000000000000000000000000000000000000000000000000000080000000000000000000000000200000000000000000000000000000000000000000000000000000000000000000000000000000000000020000000000000000000000000800000000000000000000000000000000000000000000000000000000001000000000000000000000800000000000000000000080000000000000000000000000000800080000000000000000000000000000000000000000000001000000000000000000000000200000000000000",
      "type": "0x2",
      "transactionHash": "0xfaa3db9559e4e6dbf334b7d2e871e19827133badb597005a6faf5cb29b6a166a",
      "transactionIndex": "0x1",
      "blockHash": "0xdb77439428283ff5266ae7ae71f21524e862bd3a52ab4e6b74946ba992499d1b",
      "blockNumber": "0xfad022",
      "gasUsed": "0x7346f",
      "effectiveGasPrice": "0x17fb474601",
      "from": "0x492c0b9f298cc49fe2644a2ebc6ea8df848c72fb",
      "to": "0xd821a7d919e007b6b39925f672f1219db4865fba",
      "contractAddress": null
    }
  ],
  "libraries": [],
  "pending": [],
  "returns": {},
  "timestamp": 1772557524863,
  "chain": 10143,
  "commit": "9001a3e"
}